{
  "_format": "hh-sol-artifact-1",
  "contractName": "ProximitySensorManager",
  "sourceName": "contracts/ProximitySensorManager.sol",
  "abi": [
    {
      "inputs": [],
      "stateMutability": "nonpayable",
      "type": "constructor"
    },
    {
      "anonymous": false,
      "inputs": [
        {
          "indexed": false,
          "internalType": "string",
          "name": "uid",
          "type": "string"
        },
        {
          "indexed": false,
          "internalType": "string",
          "name": "macAddress",
          "type": "string"
        },
        {
          "indexed": false,
          "internalType": "string",
          "name": "measurementType",
          "type": "string"
        },
        {
          "indexed": false,
          "internalType": "uint256",
          "name": "registeredAt",
          "type": "uint256"
        },
        {
          "indexed": false,
          "internalType": "uint256",
          "name": "expiresAt",
          "type": "uint256"
        }
      ],
      "name": "SensorRegistered",
      "type": "event"
    },
    {
      "inputs": [],
      "name": "admin",
      "outputs": [
        {
          "internalType": "address",
          "name": "",
          "type": "address"
        }
      ],
      "stateMutability": "view",
      "type": "function"
    },
    {
      "inputs": [
        {
          "internalType": "string",
          "name": "_uid",
          "type": "string"
        }
      ],
      "name": "isProximitySensorAuthentic",
      "outputs": [
        {
          "internalType": "bool",
          "name": "",
          "type": "bool"
        }
      ],
      "stateMutability": "view",
      "type": "function"
    },
    {
      "inputs": [
        {
          "internalType": "string",
          "name": "_uid",
          "type": "string"
        },
        {
          "internalType": "string",
          "name": "_macAddress",
          "type": "string"
        }
      ],
      "name": "registerProximitySensor",
      "outputs": [],
      "stateMutability": "nonpayable",
      "type": "function"
    },
    {
      "inputs": [
        {
          "internalType": "string",
          "name": "",
          "type": "string"
        }
      ],
      "name": "sensors",
      "outputs": [
        {
          "internalType": "string",
          "name": "macAddress",
          "type": "string"
        },
        {
          "internalType": "string",
          "name": "measurementType",
          "type": "string"
        },
        {
          "internalType": "uint256",
          "name": "registeredAt",
          "type": "uint256"
        },
        {
          "internalType": "uint256",
          "name": "expiresAt",
          "type": "uint256"
        },
        {
          "internalType": "bool",
          "name": "isValid",
          "type": "bool"
        }
      ],
      "stateMutability": "view",
      "type": "function"
    }
  ],
  "bytecode": "0x6080604052348015600f57600080fd5b50336000806101000a81548173ffffffffffffffffffffffffffffffffffffffff021916908373ffffffffffffffffffffffffffffffffffffffff160217905550610f708061005f6000396000f3fe608060405234801561001057600080fd5b506004361061004c5760003560e01c80637996c7e714610051578063887a50421461006d578063e53a2ed3146100a1578063f851a440146100d1575b600080fd5b61006b600480360381019061006691906107aa565b6100ef565b005b61008760048036038101906100829190610822565b610325565b60405161009895949392919061091e565b60405180910390f35b6100bb60048036038101906100b69190610822565b61048e565b6040516100c8919061097f565b60405180910390f35b6100d961062c565b6040516100e691906109db565b60405180910390f35b60008054906101000a900473ffffffffffffffffffffffffffffffffffffffff1673ffffffffffffffffffffffffffffffffffffffff163373ffffffffffffffffffffffffffffffffffffffff161461017d576040517f08c379a000000000000000000000000000000000000000000000000000000000815260040161017490610a68565b60405180910390fd5b60018260405161018d9190610ac4565b908152602001604051809103902060040160009054906101000a900460ff16156101ec576040517f08c379a00000000000000000000000000000000000000000000000000000000081526004016101e390610b27565b60405180910390fd5b600042905060006078826102009190610b76565b90506040518060a001604052808481526020016040518060400160405280600981526020017f70726f78696d69747900000000000000000000000000000000000000000000008152508152602001838152602001828152602001600115158152506001856040516102719190610ac4565b908152602001604051809103902060008201518160000190816102949190610db6565b5060208201518160010190816102aa9190610db6565b50604082015181600201556060820151816003015560808201518160040160006101000a81548160ff0219169083151502179055509050507fd426d3b7fcb40b4aeaa310290c0b02ad9ccf00fe0d2a1e7f1ff2c904495661b1848484846040516103179493929190610ed4565b60405180910390a150505050565b60018180516020810182018051848252602083016020850120818352809550505050505060009150905080600001805461035e90610bd9565b80601f016020809104026020016040519081016040528092919081815260200182805461038a90610bd9565b80156103d75780601f106103ac576101008083540402835291602001916103d7565b820191906000526020600020905b8154815290600101906020018083116103ba57829003601f168201915b5050505050908060010180546103ec90610bd9565b80601f016020809104026020016040519081016040528092919081815260200182805461041890610bd9565b80156104655780601f1061043a57610100808354040283529160200191610465565b820191906000526020600020905b81548152906001019060200180831161044857829003601f168201915b5050505050908060020154908060030154908060040160009054906101000a900460ff16905085565b6000806001836040516104a19190610ac4565b90815260200160405180910390206040518060a00160405290816000820180546104ca90610bd9565b80601f01602080910402602001604051908101604052809291908181526020018280546104f690610bd9565b80156105435780601f1061051857610100808354040283529160200191610543565b820191906000526020600020905b81548152906001019060200180831161052657829003601f168201915b5050505050815260200160018201805461055c90610bd9565b80601f016020809104026020016040519081016040528092919081815260200182805461058890610bd9565b80156105d55780601f106105aa576101008083540402835291602001916105d5565b820191906000526020600020905b8154815290600101906020018083116105b857829003601f168201915b5050505050815260200160028201548152602001600382015481526020016004820160009054906101000a900460ff161515151581525050905080608001518015610624575080606001514211155b915050919050565b60008054906101000a900473ffffffffffffffffffffffffffffffffffffffff1681565b6000604051905090565b600080fd5b600080fd5b600080fd5b600080fd5b6000601f19601f8301169050919050565b7f4e487b7100000000000000000000000000000000000000000000000000000000600052604160045260246000fd5b6106b78261066e565b810181811067ffffffffffffffff821117156106d6576106d561067f565b5b80604052505050565b60006106e9610650565b90506106f582826106ae565b919050565b600067ffffffffffffffff8211156107155761071461067f565b5b61071e8261066e565b9050602081019050919050565b82818337600083830152505050565b600061074d610748846106fa565b6106df565b90508281526020810184848401111561076957610768610669565b5b61077484828561072b565b509392505050565b600082601f83011261079157610790610664565b5b81356107a184826020860161073a565b91505092915050565b600080604083850312156107c1576107c061065a565b5b600083013567ffffffffffffffff8111156107df576107de61065f565b5b6107eb8582860161077c565b925050602083013567ffffffffffffffff81111561080c5761080b61065f565b5b6108188582860161077c565b9150509250929050565b6000602082840312156108385761083761065a565b5b600082013567ffffffffffffffff8111156108565761085561065f565b5b6108628482850161077c565b91505092915050565b600081519050919050565b600082825260208201905092915050565b60005b838110156108a557808201518184015260208101905061088a565b60008484015250505050565b60006108bc8261086b565b6108c68185610876565b93506108d6818560208601610887565b6108df8161066e565b840191505092915050565b6000819050919050565b6108fd816108ea565b82525050565b60008115159050919050565b61091881610903565b82525050565b600060a082019050818103600083015261093881886108b1565b9050818103602083015261094c81876108b1565b905061095b60408301866108f4565b61096860608301856108f4565b610975608083018461090f565b9695505050505050565b6000602082019050610994600083018461090f565b92915050565b600073ffffffffffffffffffffffffffffffffffffffff82169050919050565b60006109c58261099a565b9050919050565b6109d5816109ba565b82525050565b60006020820190506109f060008301846109cc565b92915050565b7f4f6e6c792061646d696e2063616e20706572666f726d2074686973206163746960008201527f6f6e2e0000000000000000000000000000000000000000000000000000000000602082015250565b6000610a52602383610876565b9150610a5d826109f6565b604082019050919050565b60006020820190508181036000830152610a8181610a45565b9050919050565b600081905092915050565b6000610a9e8261086b565b610aa88185610a88565b9350610ab8818560208601610887565b80840191505092915050565b6000610ad08284610a93565b915081905092915050565b7f44657669636520616c7265616479207265676973746572656400000000000000600082015250565b6000610b11601983610876565b9150610b1c82610adb565b602082019050919050565b60006020820190508181036000830152610b4081610b04565b9050919050565b7f4e487b7100000000000000000000000000000000000000000000000000000000600052601160045260246000fd5b6000610b81826108ea565b9150610b8c836108ea565b9250828201905080821115610ba457610ba3610b47565b5b92915050565b7f4e487b7100000000000000000000000000000000000000000000000000000000600052602260045260246000fd5b60006002820490506001821680610bf157607f821691505b602082108103610c0457610c03610baa565b5b50919050565b60008190508160005260206000209050919050565b60006020601f8301049050919050565b600082821b905092915050565b600060088302610c6c7fffffffffffffffffffffffffffffffffffffffffffffffffffffffffffffffff82610c2f565b610c768683610c2f565b95508019841693508086168417925050509392505050565b6000819050919050565b6000610cb3610cae610ca9846108ea565b610c8e565b6108ea565b9050919050565b6000819050919050565b610ccd83610c98565b610ce1610cd982610cba565b848454610c3c565b825550505050565b600090565b610cf6610ce9565b610d01818484610cc4565b505050565b5b81811015610d2557610d1a600082610cee565b600181019050610d07565b5050565b601f821115610d6a57610d3b81610c0a565b610d4484610c1f565b81016020851015610d53578190505b610d67610d5f85610c1f565b830182610d06565b50505b505050565b600082821c905092915050565b6000610d8d60001984600802610d6f565b1980831691505092915050565b6000610da68383610d7c565b9150826002028217905092915050565b610dbf8261086b565b67ffffffffffffffff811115610dd857610dd761067f565b5b610de28254610bd9565b610ded828285610d29565b600060209050601f831160018114610e205760008415610e0e578287015190505b610e188582610d9a565b865550610e80565b601f198416610e2e86610c0a565b60005b82811015610e5657848901518255600182019150602085019450602081019050610e31565b86831015610e735784890151610e6f601f891682610d7c565b8355505b6001600288020188555050505b505050505050565b7f70726f78696d6974790000000000000000000000000000000000000000000000600082015250565b6000610ebe600983610876565b9150610ec982610e88565b602082019050919050565b600060a0820190508181036000830152610eee81876108b1565b90508181036020830152610f0281866108b1565b90508181036040830152610f1581610eb1565b9050610f2460608301856108f4565b610f3160808301846108f4565b9594505050505056fea2646970667358221220593d8a2f1b4ca0273c9bbe194d5d7fa42a05595634a9a046ed2abf5b134044a864736f6c634300081c0033",
  "linkReferences": {},
  "deployedLinkReferences": {}
}